:100000000C942A000C9447000C9447000C94470071
:100010000C9447000C94D2000C9447000C944700B9
:100020000C9447000C9447000C9447000C94470034
:100030000C9447000C9447000C9447000C94470024
:100040000C9447000C9447000C9447000C94470014
:100050000C94470011241FBECFE5D8E0DEBFCDBF12
:1000600011E0A0E6B0E0E8E4FBE002C005900D92EC
:10007000AA32B107D9F711E0AAE2B1E001C01D929E
:10008000A633B107E1F70E9426020C94A2050C9456
:10009000000098B3282F207F9F70292B28BBC09881
:1000A000C19A21E0922F9A95F1F7C19892E49A951E
:1000B000F1F798B38295807F9F70982B98BBC19A77
:1000C0002A95F1F7C19884EF91E00197F1F708952F
:1000D00098B3282F207F9F70292B28BBC09AC19AE4
:1000E00021E0922F9A95F1F7C19892E49A95F1F751
:1000F00098B38295807F9F70982B98BBC19A2A9560
:10010000F1F7C19884EF91E00197F1F708958FEF2F
:1001100087BB88E893E10197F1F782E00E944900EC
:1001200088E20E9449008CE00E94490086E00E941B
:10013000490081E00E94490084EF91E00197F1F7C6
:100140000895CF93DF93EC0102C00E94680089916B
:100150008823D9F7DF91CF910895CF93DF93EA01F8
:10016000882331F4603168F46F70862F806807C08F
:10017000813039F4603128F46F70862F806C0E94D2
:100180004900CE010E94A100DF91CF91089581E046
:100190000E94490084EF91E00197F1F780E80E9406
:1001A000490008951F920F920FB60F9211248F935A
:1001B0009F93AF93BF9380912A0190912B01A091BF
:1001C0002C01B0912D010196A11DB11D80932A0132
:1001D00090932B01A0932C01B0932D01BF91AF916F
:1001E0009F918F910F900FBE0F901F90189584B51F
:1001F00020912A0130912B0140912C0150912D0129
:10020000542F432F322F2227280F311D411D511DFE
:10021000B901CA01089524B560912A0170912B019A
:1002200080912C0190912D01982F872F762F662792
:10023000620F711D811D911D28EE33E040E050E0FA
:100240000E94A802CA01B901089589B7806489BFD4
:10025000789485B5816085BD089586B1876086B93B
:100260003E9A379A089597B18F70907F892B87B9FE
:10027000369A3699FECF24B135B1C9010895A09AB6
:10028000A8988A9A9298899A9198889A9098D198E1
:10029000D99AD0988E98D298DA9A089580E090E012
:1002A00020B3919A009711F0909A01C09098CA9942
:1002B00002C081E090E0189499F3009789F30E94BE
:1002C000C70080E690E00E94A10081E090E00895E0
:1002D0000F931F93DF93CF93CDB7DEB7C050D140BC
:1002E0000FB6F894DEBF0FBECDBF00D000D000D057
:1002F000EDB7FEB731968E010F5F1F4FADB7BEB79A
:1003000012961C930E93119726E730E033832283D5
:10031000958384830E94CA028DB79EB706960FB656
:10032000F8949EBF0FBE8DBFC8010E94A100C050AF
:10033000DF4F0FB6F894DEBF0FBECDBFCF91DF9178
:100340001F910F910895CF92DF92EF92FF920F933A
:100350001F93CF93DF937B018C01C0E0D0E048EA8C
:10036000C42E41E6D42E0E940B016093320170939B
:10037000330180933401909335016E197F09800B0E
:10038000910B61527E4480409040D0F00E94C700A3
:1003900089E790E00E94A10080EC0E9449008CE86F
:1003A00090E00E94A10084E190E00E94680182E94F
:1003B00090E00E94A100A898929820E030E03CC014
:1003C000CE31D10558F480E00E9433018D52914026
:1003D00050F22196C6010197F1F7C5CF0E94C700E0
:1003E00084E990E00E94A10080EC0E94490085EA27
:1003F00090E00E94A10060913201709133018091E0
:100400003401909135016E197F09800B910B28EE14
:1004100033E040E050E00E94A802DA01C9010E94E6
:1004200068018DEA90E00E94A100CE010E9468015F
:10043000A89A929A21E030E0C901DF91CF911F91F3
:100440000F91FF90EF90DF90CF900895CF93DF93BF
:100450000E9487000E942D0189B7806489BF78942B
:1004600085B5816085BDC9E1D0E00E943F010E9451
:10047000C70088EB90E00E94A10080EC0E94490038
:1004800083EC90E00E94A100C999FECF0E94C700B2
:1004900088EB90E00E94A10080EC0E94490082ED70
:1004A00090E00E94A1000E944E01019709F047C010
:1004B0000E94C70080E690E00E94A1000E94C70051
:1004C0008AED90E00E94A10080EC0E94490083EC3C
:1004D00090E00E94A100C999FECF0E94C7008AED5A
:1004E00090E00E94A10080EC0E94490082ED90E023
:1004F0000E94A1000E940B010E94A301019781F4B8
:100500000E94C70084EE90E00E94A10080EC0E944F
:10051000490083EF90E00E94A100C999FECF0FC06F
:100520000E94C70084E091E00E94A10080EC0E943C
:10053000490083EF90E00E94A100C999FECF88E8AE
:1005400093E1FE013197F1F7019709F48ECFF9CFCE
:10055000A1E21A2EAA1BBB1BFD010DC0AA1FBB1FC7
:10056000EE1FFF1FA217B307E407F50720F0A21B39
:10057000B30BE40BF50B661F771F881F991F1A94A6
:1005800069F760957095809590959B01AC01BD01D0
:10059000CF010895AEE0B0E0E0EDF2E00C94790513
:1005A0000D891E8986E08C831A8309838FEF9FE76C
:1005B0009E838D839E01275E3F4FCE0101966F89FA
:1005C000788DA9010E94EE022F813885020F131F3A
:1005D000F80110822E96E4E00C949505ABE0B0E0B3
:1005E000E4EFF2E00C946B053C012B015A01FC0195
:1005F00017821682838181FD03C06FEF7FEFC6C132
:100600009AE0892E1E010894211C311CF3012381DC
:10061000F20123FD859123FF81912F01882309F4A5
:10062000B2C1853239F423FD859123FF81912F01D9
:10063000853229F490E0B3010E94E104E7CF982FBE
:10064000FF24EE249924FFE1FF15D0F09B3269F0DE
:100650009C3228F4903259F0933291F40EC09D32BE
:1006600049F0903369F441E024C052E0F52A84E077
:10067000F82A28C098E0F92A25C0E0E1FE2A22C025
:10068000F7FC29C0892F80538A3070F4F6FE05C02C
:10069000989C902C1124980E15C0E89CE02C1124F5
:1006A000E80EF0E2FF2A0EC09E3229F4F6FC6BC180
:1006B00040E4F42A07C09C3619F450E8F52A02C039
:1006C000983649F4F20123FD959123FF91912F0172
:1006D000992309F0B8CF892F8554833018F08052C0
:1006E000833038F444E050E0A40EB51E5FE3598334
:1006F0000FC0933631F0933779F0933509F056C037
:1007000020C0F5018081898342E050E0A40EB51E2F
:10071000610101E010E012C0F501C080D180F6FC5B
:1007200003C06FEF7FEF02C0692D70E042E050E040
:10073000A40EB51EC6010E94D6048C015FE7F52207
:1007400014C0F501C080D180F6FC03C06FEF7FEFCD
:1007500002C0692D70E042E050E0A40EB51EC60153
:100760000E94CB048C0150E8F52AF3FE07C01AC0A2
:1007700080E290E0B3010E94E104EA948E2D90E0C3
:1007800008171907A8F30EC0F601F7FC8591F7FECC
:1007900081916F0190E0B3010E94E104E110EA94BD
:1007A000015010400115110579F7EAC0943611F097
:1007B000993669F5F7FE08C0F50120813181428143
:1007C000538184E090E00AC0F501808191819C0111
:1007D000442737FD4095542F82E090E0A80EB91EC3
:1007E0009FE6F92257FF09C0509540953095219515
:1007F0003F4F4F4F5F4FE0E8FE2ACA01B901A10108
:100800002AE030E00E940D05D82ED21840C095375E
:1008100029F41F2D1F7E2AE030E01DC01F2D197FF7
:100820009F3661F0903720F4983509F0ACC00FC0C6
:10083000903739F0983709F0A6C004C028E030E0BE
:100840000AC0106114FD146020E130E004C014FD02
:10085000166020E132E017FF08C0F5016081718168
:100860008281938144E050E008C0F501808191814C
:10087000BC0180E090E042E050E0A40EB51EA10172
:100880000E940D05D82ED2188FE7F82EF122F6FE21
:100890000BC05EEFF522D91438F4F4FE07C0F2FC69
:1008A00005C08FEEF82202C01D2D01C0192DF4FEE7
:1008B0000DC0FE01ED0DF11D8081803319F499EE1C
:1008C000F92208C01F5FF2FE05C003C08F2D867895
:1008D00009F01F5F0F2DF3FC14C0F0FE0FC01E15B2
:1008E00010F09D2C0BC09D2C9E0C911A1E2D06C045
:1008F00080E290E0B3010E94E1041F5F1E15C0F387
:1009000004C01E1510F4E11A01C0EE2404FF0FC04C
:1009100080E390E0B3010E94E10402FF1DC001FDED
:1009200003C088E790E00EC088E590E00BC0802F00
:10093000867891F001FF02C08BE201C080E2F7FCF3
:100940008DE290E0B3010E94E10406C080E390E0F4
:10095000B3010E94E1049A94D914C0F3DA94F1012E
:10096000ED0DF11D808190E0B3010E94E104DD20D6
:10097000A9F706C080E290E0B3010E94E104EA9486
:10098000EE20C1F743CEF30166817781CB012B9630
:10099000E2E10C948705FC01059061507040011064
:1009A000D8F7809590958E0F9F1F0895FC01615098
:1009B000704001900110D8F7809590958E0F9F1F81
:1009C00008950F931F93CF93DF938C01EB018B81DD
:1009D00081FF1BC082FF0DC02E813F818C819D81D4
:1009E0002817390764F4E881F9810193F983E883D2
:1009F00006C0E885F985802F0995892B31F48E8111
:100A00009F8101969F838E8302C00FEF1FEFC80165
:100A1000DF91CF911F910F910895FA01AA272830F5
:100A200051F1203181F1E8946F936E7F6E5F7F4FBB
:100A30008F4F9F4FAF4FB1E03ED0B4E03CD0670F37
:100A4000781F891F9A1FA11D680F791F8A1F911D8A
:100A5000A11D6A0F711D811D911DA11D20D009F4DA
:100A600068943F912AE0269F11243019305D31931C
:100A7000DEF6CF010895462F4770405D4193B3E005
:100A80000FD0C9F7F6CF462F4F70405D4A3318F0AC
:100A9000495D31FD4052419302D0A9F7EACFB4E05D
:100AA000A6959795879577956795BA95C9F7009715
:100AB0006105710508959B01AC010A2E06945795B6
:100AC000479537952795BA95C9F7620F731F841F0D
:100AD000951FA01D08952F923F924F925F926F92A3
:100AE0007F928F929F92AF92BF92CF92DF92EF92BE
:100AF000FF920F931F93CF93DF93CDB7DEB7CA1B3F
:100B0000DB0B0FB6F894DEBF0FBECDBF09942A8869
:100B1000398848885F846E847D848C849B84AA8411
:100B2000B984C884DF80EE80FD800C811B81AA819E
:100B3000B981CE0FD11D0FB6F894DEBF0FBECDBF69
:080B4000ED010895F894FFCFC8
:100B4800564E544C4154494F4E3A20537563636591
:100B5800737366756C00256400434D505245534EBF
:100B68003A20556E737563636573730054696D65D8
:100B78003E007300434D505245534E3A205375631F
:100B8800636573730054696D65203D20002C204314
:100B98006F756E74203D2000564E544C4154494F99
:100BA8004E3A00507265737320746F2073746172CB
:100BB80074005374617274656400434F4D5052451C
:100BC800534E3A00545241494E3A20537563636577
:100BD800737300507265737320746F207265737439
:100BE80061727400545241494E3A20436D707265E7
:100BF800736E206661696C640000020100010006E2
:0A0C080002204E2C011E0000000027
:00000001FF
